:020000040000FA
:100000000C9446000C945B000C945B000C945B0019
:100010000C945B000C945B000C945B000C945B00F4
:100020000C945B000C945B000C945B000C945B00E4
:100030000C945B000C945B000C945B000C945B00D4
:100040000C945B000C945B000C945B000C945B00C4
:100050000C945B000C945B000C945B000C945B00B4
:100060000C945B000C945B000C945B000C945B00A4
:100070000C945B000C945B000C945B000C945B0094
:100080000C945B000C945B000C945B0011241FBE6D
:10009000CFEFD0E4DEBFCDBF11E0A0E0B1E0E8E8F3
:1000A000F1E002C005900D92A030B107D9F70E948F
:1000B00094000C94C2000C9400001092CD008AE0D1
:1000C0008093CC00E8ECF0E080818D7F808386E037
:1000D0008093CA0088E18093C9000C9400FB809152
:1000E000C80087FFFCCF8091CE000C9400FBCF931B
:1000F000C82F8A3019F48DE00E9477008091C800E3
:1001000085FFFCCFC093CE00CF910C9400FBCF9322
:10011000DF93EC018991811104C0DF91CF910C94A0
:1001200000FB0E947700F6CFCF93DF93CDB7DEB709
:1001300064970FB6F894DEBF0FBECDBF0E945D007E
:1001400084B1806684B96E0185E1C80ED11C8E0130
:100150000F5F1F4F78010E946F00F70181937F01AD
:10016000EC15FD05C1F78FE60E947700C8010E94DB
:100170006CF8F80181918F010E9477000E151F0520
:08018000C1F7E5CFF894FFCFB1
:10F70000880188010000F74FAAC5023918E93EFBBD
:0AF71000366DE57C9F06708AB2AAF0
:020000040001F9
:10F00000CF92DF92EF92FF921F93CF93DF9323E093
:10F01000FA0160935B0020935700E89507B600FC67
:10F02000FDCFDC01B3956A017B0131E0FC01208159
:10F03000EC0122961181822F90E0912B0C01F601B8
:10F04000E0925B0030935700E8951124F2E0CF0E78
:10F05000D11CE11CF11CCE01CA17DB0739F785E092
:10F06000FA0160935B0080935700E89507B600FCB7
:10F07000FDCF81E180935700E895DF91CF911F91FB
:10F08000FF90EF90DF90CF900895ECEDFBEFDC0167
:10F0900021E02BBF24E107900D922A95E1F7089516
:10F0A000262FFA01DC012BBF222707900D92239512
:10F0B000E1F70895CF93CFB7F894611528EF720761
:10F0C00040F4AB0160E070E058506F4F7F4F0E94FA
:10F0D00000F8CFBFCF910895BF92CF92DF92EF9209
:10F0E000FF920F931F93CF93DF93CDB7DEB7C85333
:10F0F000D1400FB6F894DEBF0FBECDBF8C01BFB6B6
:10F10000F894CE0101960E9445F840EA50E0BE0115
:10F110006F5F7F4FCE018F5F9E4F0E9429FDC12CF4
:10F12000D12C7601B701A601CE0101960E9450F8BC
:10F13000BE016F5F7F4FCE018F5F9E4F0E9488FDA3
:10F14000BE016F5B7F4FCE018F5F9E4F0E9488FD97
:10F15000BE016F577F4FCE018F5F9E4F0E9488FD8B
:10F16000BE016F537F4FCE018F5F9E4F0E9488FD7F
:10F170008FEFD81AE80AF80AC114D10482E0E80631
:10F18000F10481F640EA50E0B801CE018F5F9E4F56
:10F190000E948AFDBE016F5F7E4FC8010E94C1FDC3
:10F1A000BFBEC85CDE4F0FB6F894DEBF0FBECDBF4A
:10F1B000DF91CF911F910F91FF90EF90DF90CF9053
:10F1C000BF9008958F929F92AF92BF92CF92DF929D
:10F1D000FF920F931F93CF93DF93CDB7DEB7CC543D
:10F1E000D2400FB6F894DEBF0FBECDBF81E08BBF1B
:10F1F000E0E0FFEE07911691E4E0FFEE8791969133
:10F200008D5FF82EFF0CCE0101960E9445F840EA72
:10F2100050E0BE016F5F7F4FCE018F5F9D4F0E9418
:10F2200029FD6801812C38EF932EA12CB12C8FEF92
:10F23000C816D10411F008F062C0412F552710E024
:10F2400060E070E048505F4F6F4F7F4F762F652F23
:10F25000542F4427CE0101960E9450F840E05FEE03
:10F2600061E070E081E090E08C0F9D1F800F911FA6
:10F270000E9450F80F0D111DA80123E0440F551FE7
:10F280002A95E1F7BE016F5F7F4FCE018F5F9D4FE3
:10F290000E948AFD61E070E06C0F7D1F600F711F9E
:10F2A00044E150E0CE01875C9D4F0E94D8FDBE0135
:10F2B0006F5F7D4FCE0101960E94C1FD44E150E099
:10F2C000BE01675C7D4FCE0101960E94E1FD21E009
:10F2D000892B09F020E0822FC45BDD4F0FB6F89434
:10F2E000DEBF0FBECDBFDF91CF911F910F91FF9079
:10F2F000DF90CF90BF90AF909F908F900895B50111
:10F30000A401CE0101960E9450F8BE016F5F7F4FAD
:10F31000CE018F5F9D4F0E9488FDBE016F5B7F4FC6
:10F32000CE018F5F9D4F0E9488FDBE016F577F4FBA
:10F33000CE018F5F9D4F0E9488FDBE016F537F4FAE
:10F34000CE018F5F9D4F0E9488FDDA948FEF981A4F
:10F35000A80AB80A6CCF21E02BBFE2E0FFEE2791AC
:10F360003691369527958217930770F020EF3BEF83
:10F37000F901479156918417950771F02E5F3F4F21
:10F38000452BB1F780E00895E4E0FFEE2791369138
:10F3900046E05FEE211102C081E00895FA01679115
:10F3A00076918617970771F34E5F5F4F2150F2CF2A
:10F3B0004F925F926F927F928F929F92AF92BF9285
:10F3C000CF92DF92EF92FF920F931F93CF93DF9331
:10F3D000CDB7DEB7DA950FB6F894DEBF0FBECDBF5E
:10F3E0008FB6F89481E08BBFE2E0FFEEA790B69075
:10F3F000B694A794912C712CC12C58EFD52EE12CEA
:10F40000F12C66246394AE14BF0481F50E94E2F8E7
:10F41000882309F437C081E08BBFE0E0FFEE8791DD
:10F42000969101E010E0811102C000E010E0892F08
:10F430009927080F191FC12CD12CE12CF12C0E1586
:10F440001F0509F061C040E05FEE61E070E0CE01B1
:10F4500001960E9450F840E057EF60E070E0CE0166
:10F4600001960E9400F88FBE0C9400007BBEF6014E
:10F4700007911691992009F476C0C8010E94ABF952
:10F48000811159C080E0D3950FB6F894DEBF0FBE4E
:10F49000CDBFDF91CF911F910F91FF90EF90DF9043
:10F4A000CF90BF90AF909F908F907F906F905F9024
:10F4B0004F900895C8018827987F8115904FB1F427
:10F4C00033E0169507953A95E1F70F771127003449
:10F4D000110510F000681F6FC7010196800F911F82
:10F4E0000E94ABF9882309F45FC066C0C801882771
:10F4F000907E8115904C09F05FC01F70011588E067
:10F50000180750F3106FE8CF2601612C712CB3015E
:10F51000A20158506F4F7F4FCE0101960E9450F8C4
:10F52000B301A201CE0101960E9400F82FEFE21A6A
:10F53000F20AD39484CF0C3024E9120709F03EC0BC
:10F54000C7010E94ABF981119DCF96242FEFE21ADB
:10F55000F20A82E0C80ED11CC114D10409F053CFC5
:10F560007724739450CF0C3084E9180771F30E3070
:10F5700024E9120751F3C801885095490297A0F079
:10F58000083125E9120781F0093084E9180761F094
:10F59000083D25E9120741F0C8018F709E7F865013
:10F5A0009049029708F086CF992009F46BCFC701E4
:10F5B0000E94ABF9811166CF912CC8CF0E3084E93F
:10F5C0001807C9F6BDCF2F932FB7F8942F932BB7F9
:10F5D0002F933F934F938F939F93EF93FF93CF017D
:10F5E0004FD0882361F0FF91EF919F918F914F91C0
:10F5F0003F912F912BBF2F912FBF2F910994FFCFB8
:10F600002F932FB7F8942F932BB72F933F934F93AC
:10F610008F939F93EF93FF93EDB7FEB73A96919137
:10F6200080812ED0882359F3FF91EF919F918F9184
:10F630004F913F912F912BBF2F912FBF2F91089565
:10F640002F932FB7F8942F932BB72F933F934F936C
:10F650008F939F93EF93FF93EDB7FEB73A969191F7
:10F6600080810ED0882359F2FF91EF919F918F9165
:10F670004F913F912F912BBF2F912FBF2F91189515
:10F68000E2E0F7EF2591349136952795821793079D
:10F6900078F0E0EFFBEF21E02BBF27913791821745
:10F6A000930711F481E00895232BB9F780E00895C2
:10F6B000E4E0F7EF4491E6E0F7EF442399F3259176
:10F6C00035918217930791F34150F7CFDB01FC018D
:10F6D00055E0149744E018960E9001924A95E1F790
:10F6E0005A95C1F70895523090F09F938F937F936E
:10F6F0006F935F934F9377D04F915F916F917F910D
:10F700008F919F91525030E4630F711DECCFEDB794
:10F71000FEB70FB6E054F040F894EDBF0FBEFEBF49
:10F720003196242F26952695269550FB25F9DB0149
:10F73000222329F0122E0D9001921A94E1F730E85D
:10F74000032E37E0342329F006943A95E9F73C91EB
:10F75000032A01922395293308F421C030E4321B97
:10F7600019F011923A95E9F7FF973197BF01FF938E
:10F77000EF939F938F935F934F9335D04F915F910A
:10F780008F919F91EF91FF91DC0155963C91325002
:10F790003D9326E03C9130403D932A95D9F738E3DC
:10F7A000321B21F0112411923A95E9F7DC015496AD
:10F7B00038960D90040E02920D90051E029236E0CE
:10F7C0000D90011C02923A95D9F7F897BF010BD022
:10F7D000EDB7FEB70FB6FF963196F894EDBF0FBEAA
:10F7E000FEBF11240895AF92BF92CF92DF92EF92A5
:10F7F000FF920F931F93CF93DF934DB75EB79A019C
:10F80000FB0148555040DA010FB6F8944DBF0FBECA
:10F810005EBF2F933F938F939F93C1E0CBBFEC01CB
:10F82000119604E129912D930A95E1F75D01FB0101
:10F8300000E123812D9322812D9321812D9320811D
:10F840002D9334960A95A9F70024102F110F110F4C
:10F850001C73D501A10FB11DCD90DD90ED90FD90F1
:10F86000003114F128E005D020E203D024E301D0D8
:10F870000EC0210F2F73D501A20FB11D3D91C326DC
:10F880003D91D3263D91E3263D91F32608953F2DEA
:10F89000331FCC1CDD1CEE1CFF1CD501A10FB11DBC
:10F8A000CD92DD92ED92FD92D50114972D91C20E6D
:10F8B0002D91D21E2D91E21E2D91F21E54976D9125
:10F8C0007D918D919D91292F35E0221F661F771F15
:10F8D000881F991F3A95C9F7C60ED71EE81EF91E54
:10F8E000ECECF9EFE00DF11D2691201709F40394DB
:10F8F000E0EDF9EF000C000CE00DF11D069406940C
:10F900002791C20E2791D21E2791E21E2791F21E47
:10F91000ED013C960894F795E7950995622F0995B6
:10F92000722F0995822F0995C60ED71EE81EF21E6A
:10F93000E501249730E12A912C833A95E1F7E5011E
:10F940006497C992D992E992F992CC80DD80EE80D9
:10F95000FF802C2D32E02795F794E794D794C79435
:10F960003A95C9F7CC82DD82EE82FF82039500359D
:10F970000CF46BCF2497BF91AF9155E0889444E08D
:10F980002C913991231F2D934A95D1F75A95B1F7B0
:10F9900011962C9132E0230F2D9336E02C91211DEE
:10F9A0002D933A95D9F75F914F910FB6F8944DBFCB
:10F9B0000FBE5EBF1124DF91CF911F910F91FF9079
:10F9C000EF90DF90CF90BF90AF90089514283C0047
:10F9D0009979825AA1EBD96EDCBC1B8FD6C162CA61
:10F9E00006C0000017C000000BC0000013C0299122
:10F9F000322F30954B8124234F81342323270895C0
:10FA00002991322F4B8124235F81352323274523DE
:10FA10002427089529913B8123273F812327089597
:10FA2000DC01EEE3FAEF64E171E07BBF77917D9357
:10FA30006A95E1F768E01D926A95E9F70895012358
:10FA4000456789ABCDEFFEDCBA9876543210F0E111
:10FA5000D2C3AF92BF92CF92DF92EF92FF920F93F9
:10FA60001F93CF93DF93CDB7DEB7C054D1090FB644
:10FA7000F894DEBF0FBECDBF8C01CE0101967C0194
:10FA800080E4F70111928A95E9F7495F5F4F83E0BF
:10FA9000569547958A95E1F7C7010E94D8FD570111
:10FAA0009E012F5B3F4F670196E3F6018081892716
:10FAB00081936F01E217F307C1F7C8010E9410FD9F
:10FAC000B701C8010E94F3FB9AE6F50180818927FE
:10FAD00081935F01EC15FD05C1F7045E1F4FC8015E
:10FAE0000E9410FDB701C8010E94F3FBC05CDF4F0C
:10FAF0000FB6F894DEBF0FBECDBFDF91CF911F913F
:10FB00000F91FF90EF90DF90CF90BF90AF9008954E
:10FB10000C94F3FBAF92BF92CF92DF92EF92FF92E1
:10FB20000F931F93CF93DF937C018B01EA016A014E
:10FB30005B01C11482E0D806D0F4BE01672F77279D
:10FB40006695AE01517096E0660F771F9A95E1F7C2
:10FB5000600F711FC701DF91CF911F910F91FF902F
:10FB6000EF90DF90CF90BF90AF900C9473FBB501F6
:10FB7000C7010E94F3FB80E4A80EB11C82E0D81AF2
:10FB8000D8CF0F931F93CF93DF938C01EB010E948B
:10FB900066FB6C9640EA50E0B801CE010E9473FB10
:10FBA000BE01C801DF91CF911F910F910C9466FBAC
:10FBB000FB01DC0102C001900D9241505040D8F78A
:10FBC0000895FB01DC0104C08D910190801921F49E
:10FBD00041505040C8F7881B990B08956E26886ED7
:10FBE0004E0707E1B30F24160E99B912E461C4243D
:0EFBF000E3FA00FB20FB5AF8D8F96CF800008D
:00000001FF
